:100000000C942A000C943F000C943F000C943F0089
:100010000C943F000C943F000C943F000C943F0064
:100020000C943F000C943F000C943F000C943F0054
:100030000C943F000C943F000C943F000C943F0044
:100040000C943F000C943F000C943F000C943F0034
:100050000C943F0011241FBECFE5D8E0DEBFCDBF1A
:1000600010E0A0E6B0E0ECEAF4E002C005900D92EA
:10007000A238B107D9F70E94C6010C9454020C941F
:10008000000080E00E942B0260E080E00E94BA0144
:1000900061E080E00E94BA0162E080E00E94BA0163
:1000A0000895BC0180E00E943A0280E00895CF9359
:1000B000DF93EC01BC0180E00E94400245E050E08B
:1000C00060E670E0CE010E944602892BE9F044E030
:1000D00050E066E670E0CE010E944602892BB1F046
:1000E00044E050E06BE670E0CE010E944602892BAE
:1000F00079F042E050E060E770E0CE010E944602F5
:10010000892B41F483E007C081E005C082E003C091
:1001100080E001C08FEFDF91CF910895813099F099
:1001200028F08230E9F0833041F12CC060E080E0BB
:100130000E94BE0161E080E00E94C20162E080E0B6
:100140000E94C201089561E080E00E94BE0160E06B
:1001500080E00E94C20162E080E00E94C201089536
:1001600062E080E00E94BE0161E080E00E94C20186
:1001700060E080E00E94C201089583E790E00E9461
:100180005100089588E790E00E9451000895813061
:10019000C9F028F0823039F18330B1F146C06730C0
:1001A00008F045C0423008F044C08AB350E09A01DC
:1001B00002C0220F331F6A95E2F7B901682B6ABBB0
:1001C00081E008956730B8F54230B8F587B350E064
:1001D0009A0102C0220F331F6A95E2F7B901682B1A
:1001E00067BB81E00895673050F5423050F584B325
:1001F00050E09A0102C0220F331F6A95E2F7B9015D
:10020000682B64BB81E008956730E8F44230E8F47D
:1002100081B350E09A0102C0220F331F6A95E2F7C2
:10022000B901682B61BB81E008958DEF08958EEFD1
:1002300008958FEF08958EEF08958FEF08958EEF54
:1002400008958FEF08958EEF08958FEF0895813010
:1002500041F138F0823009F444C0833009F461C0C0
:100260007FC0673008F07EC040FD0EC02BB381E038
:1002700090E0AC0102C0440F551F6A95E2F7BA0145
:10028000609562236BBB08952BB381E090E0AC01D5
:1002900002C0440F551F6A95E2F7BA01622B6BBB8F
:1002A0000895673008F060C040FD0EC028B381E0BB
:1002B00090E0AC0102C0440F551F6A95E2F7BA0105
:1002C0006095622368BB089528B381E090E0AC019B
:1002D00002C0440F551F6A95E2F7BA01622B68BB52
:1002E0000895673008F042C040FD0EC025B381E09C
:1002F00090E0AC0102C0440F551F6A95E2F7BA01C5
:100300006095622365BB089525B381E090E0AC0160
:1003100002C0440F551F6A95E2F7BA01622B65BB14
:100320000895673028F540FD0EC022B381E090E0CB
:10033000AC0102C0440F551F6A95E2F7BA016095FF
:10034000622362BB089522B381E090E0AC0102C059
:10035000440F551F6A95E2F7BA01622B62BB0895FC
:100360008DEF08958EEF08958EEF08958EEF089526
:100370008EEF089541E00E94C700089541E00E9479
:100380002701089540E00E9427010895CF93DF934D
:1003900000D000D000D0CDB7DEB70E9441000F2EB4
:1003A000F6E0FF2EF02D8E010F5F1F4FF8018F2D0D
:1003B00011928A95E9F7C8010E9457000E948E00A9
:1003C000F5CFEF920F9382E08BB9EAB8539A549A23
:1003D00080E880BD80B5082B202B422B642B60BDAC
:1003E00010BC8CE089B90F91EF9008955D9BFECF12
:1003F0008CB90895CF93DF93EC018881882331F085
:1004000021960E94F60189918111FBCFDF91CF9156
:1004100008955F9BFECF8CB10895FF920F931F93B9
:10042000CF93DF93EC01F12C8E010F0D111D0E9473
:100430000902F8018083F394EF2DF0E03197EC0F7F
:10044000FD1F80818D3081F71082DF91CF911F9148
:100450000F91FF900895EF920F93811108C0E12C46
:1004600006E020E040E060E086E00E94E1010F91BC
:10047000EF900895811103C0CB010E94FA01089505
:10048000811103C0CB010E940D020895FB01DC0124
:100490004150504030F08D910190801919F40020A6
:0C04A000B9F7881B990B0895F894FFCF62
:1004AC00535441525400574149540053544F500037
:1004BC004154000D4F4B0D000D4552524F52210D22
:0204CC0000002E
:00000001FF
