S0110000554152545F4563686F2E73726563F9
S11300000C942A000C9434000C9434000C943400A6
S11300100C9434000C9434000C9434000C9434008C
S11300200C9434000C9434000C9434000C9434007C
S11300300C9434000C9434000C9434000C9434006C
S11300400C9434000C9434000C9434000C9434005C
S11300500C94340011241FBECFE5D8E0DEBFCDBF21
S11300600E9436000C9460000C940000E12C06E021
S113007020E040E260E086E00E9443000E945C00D1
S11300800E945800FBCFEF920F9382E08BB9EAB83D
S1130090539A549A80E880BD80B5082B202B422BBC
S11300A0642B60BD10BC8CE089B90F91EF9008956A
S11300B05D9BFECF8CB908955F9BFECF8CB10895F4
S10700C0F894FFCFDE
S9030000FC
